{
  "_format": "hh-sol-artifact-1",
  "contractName": "MintNFT",
  "sourceName": "contracts/MintNFT.sol",
  "abi": [
    {
      "inputs": [],
      "stateMutability": "nonpayable",
      "type": "constructor"
    },
    {
      "anonymous": false,
      "inputs": [
        {
          "indexed": true,
          "internalType": "address",
          "name": "owner",
          "type": "address"
        },
        {
          "indexed": true,
          "internalType": "address",
          "name": "approved",
          "type": "address"
        },
        {
          "indexed": true,
          "internalType": "uint256",
          "name": "tokenId",
          "type": "uint256"
        }
      ],
      "name": "Approval",
      "type": "event"
    },
    {
      "anonymous": false,
      "inputs": [
        {
          "indexed": true,
          "internalType": "address",
          "name": "owner",
          "type": "address"
        },
        {
          "indexed": true,
          "internalType": "address",
          "name": "operator",
          "type": "address"
        },
        {
          "indexed": false,
          "internalType": "bool",
          "name": "approved",
          "type": "bool"
        }
      ],
      "name": "ApprovalForAll",
      "type": "event"
    },
    {
      "anonymous": false,
      "inputs": [
        {
          "indexed": true,
          "internalType": "address",
          "name": "from",
          "type": "address"
        },
        {
          "indexed": true,
          "internalType": "address",
          "name": "to",
          "type": "address"
        },
        {
          "indexed": true,
          "internalType": "uint256",
          "name": "tokenId",
          "type": "uint256"
        }
      ],
      "name": "Transfer",
      "type": "event"
    },
    {
      "inputs": [
        {
          "internalType": "string",
          "name": "_title",
          "type": "string"
        }
      ],
      "name": "addBook",
      "outputs": [],
      "stateMutability": "nonpayable",
      "type": "function"
    },
    {
      "inputs": [
        {
          "internalType": "uint256",
          "name": "_bookId",
          "type": "uint256"
        },
        {
          "internalType": "string",
          "name": "_content",
          "type": "string"
        },
        {
          "internalType": "address",
          "name": "_reviewer",
          "type": "address"
        }
      ],
      "name": "addComment",
      "outputs": [],
      "stateMutability": "nonpayable",
      "type": "function"
    },
    {
      "inputs": [
        {
          "internalType": "uint256",
          "name": "_bookId",
          "type": "uint256"
        },
        {
          "internalType": "string",
          "name": "_blockAddress",
          "type": "string"
        }
      ],
      "name": "addVerifiedBlockAddress",
      "outputs": [],
      "stateMutability": "nonpayable",
      "type": "function"
    },
    {
      "inputs": [
        {
          "internalType": "address",
          "name": "to",
          "type": "address"
        },
        {
          "internalType": "uint256",
          "name": "tokenId",
          "type": "uint256"
        }
      ],
      "name": "approve",
      "outputs": [],
      "stateMutability": "nonpayable",
      "type": "function"
    },
    {
      "inputs": [
        {
          "internalType": "address",
          "name": "owner",
          "type": "address"
        }
      ],
      "name": "balanceOf",
      "outputs": [
        {
          "internalType": "uint256",
          "name": "",
          "type": "uint256"
        }
      ],
      "stateMutability": "view",
      "type": "function"
    },
    {
      "inputs": [
        {
          "internalType": "uint256",
          "name": "",
          "type": "uint256"
        }
      ],
      "name": "books",
      "outputs": [
        {
          "internalType": "uint256",
          "name": "id",
          "type": "uint256"
        },
        {
          "internalType": "string",
          "name": "title",
          "type": "string"
        }
      ],
      "stateMutability": "view",
      "type": "function"
    },
    {
      "inputs": [
        {
          "internalType": "uint256",
          "name": "",
          "type": "uint256"
        }
      ],
      "name": "comments",
      "outputs": [
        {
          "internalType": "uint256",
          "name": "id",
          "type": "uint256"
        },
        {
          "internalType": "uint256",
          "name": "bookId",
          "type": "uint256"
        },
        {
          "internalType": "string",
          "name": "content",
          "type": "string"
        },
        {
          "internalType": "address",
          "name": "reviewer",
          "type": "address"
        }
      ],
      "stateMutability": "view",
      "type": "function"
    },
    {
      "inputs": [
        {
          "internalType": "uint256",
          "name": "tokenId",
          "type": "uint256"
        }
      ],
      "name": "getApproved",
      "outputs": [
        {
          "internalType": "address",
          "name": "",
          "type": "address"
        }
      ],
      "stateMutability": "view",
      "type": "function"
    },
    {
      "inputs": [
        {
          "internalType": "uint256",
          "name": "_bookId",
          "type": "uint256"
        }
      ],
      "name": "getCommentsByBook",
      "outputs": [
        {
          "internalType": "uint256[]",
          "name": "",
          "type": "uint256[]"
        }
      ],
      "stateMutability": "view",
      "type": "function"
    },
    {
      "inputs": [
        {
          "internalType": "uint256[]",
          "name": "ids",
          "type": "uint256[]"
        }
      ],
      "name": "getCommentsByIds",
      "outputs": [
        {
          "components": [
            {
              "internalType": "uint256",
              "name": "id",
              "type": "uint256"
            },
            {
              "internalType": "uint256",
              "name": "bookId",
              "type": "uint256"
            },
            {
              "internalType": "string",
              "name": "content",
              "type": "string"
            },
            {
              "internalType": "address",
              "name": "reviewer",
              "type": "address"
            }
          ],
          "internalType": "struct MintNFT.Comment[]",
          "name": "",
          "type": "tuple[]"
        }
      ],
      "stateMutability": "view",
      "type": "function"
    },
    {
      "inputs": [
        {
          "internalType": "address",
          "name": "owner",
          "type": "address"
        },
        {
          "internalType": "address",
          "name": "operator",
          "type": "address"
        }
      ],
      "name": "isApprovedForAll",
      "outputs": [
        {
          "internalType": "bool",
          "name": "",
          "type": "bool"
        }
      ],
      "stateMutability": "view",
      "type": "function"
    },
    {
      "inputs": [
        {
          "internalType": "uint256",
          "name": "_bookId",
          "type": "uint256"
        }
      ],
      "name": "isMintNFTed",
      "outputs": [
        {
          "internalType": "bool",
          "name": "",
          "type": "bool"
        }
      ],
      "stateMutability": "view",
      "type": "function"
    },
    {
      "inputs": [
        {
          "internalType": "address",
          "name": "to",
          "type": "address"
        },
        {
          "internalType": "uint256",
          "name": "tokenId",
          "type": "uint256"
        }
      ],
      "name": "mint",
      "outputs": [],
      "stateMutability": "nonpayable",
      "type": "function"
    },
    {
      "inputs": [],
      "name": "name",
      "outputs": [
        {
          "internalType": "string",
          "name": "",
          "type": "string"
        }
      ],
      "stateMutability": "view",
      "type": "function"
    },
    {
      "inputs": [],
      "name": "owner",
      "outputs": [
        {
          "internalType": "address",
          "name": "",
          "type": "address"
        }
      ],
      "stateMutability": "view",
      "type": "function"
    },
    {
      "inputs": [
        {
          "internalType": "uint256",
          "name": "tokenId",
          "type": "uint256"
        }
      ],
      "name": "ownerOf",
      "outputs": [
        {
          "internalType": "address",
          "name": "",
          "type": "address"
        }
      ],
      "stateMutability": "view",
      "type": "function"
    },
    {
      "inputs": [
        {
          "internalType": "address",
          "name": "from",
          "type": "address"
        },
        {
          "internalType": "address",
          "name": "to",
          "type": "address"
        },
        {
          "internalType": "uint256",
          "name": "tokenId",
          "type": "uint256"
        }
      ],
      "name": "safeTransferFrom",
      "outputs": [],
      "stateMutability": "nonpayable",
      "type": "function"
    },
    {
      "inputs": [
        {
          "internalType": "address",
          "name": "from",
          "type": "address"
        },
        {
          "internalType": "address",
          "name": "to",
          "type": "address"
        },
        {
          "internalType": "uint256",
          "name": "tokenId",
          "type": "uint256"
        },
        {
          "internalType": "bytes",
          "name": "data",
          "type": "bytes"
        }
      ],
      "name": "safeTransferFrom",
      "outputs": [],
      "stateMutability": "nonpayable",
      "type": "function"
    },
    {
      "inputs": [
        {
          "internalType": "address",
          "name": "operator",
          "type": "address"
        },
        {
          "internalType": "bool",
          "name": "approved",
          "type": "bool"
        }
      ],
      "name": "setApprovalForAll",
      "outputs": [],
      "stateMutability": "nonpayable",
      "type": "function"
    },
    {
      "inputs": [
        {
          "internalType": "bytes4",
          "name": "interfaceId",
          "type": "bytes4"
        }
      ],
      "name": "supportsInterface",
      "outputs": [
        {
          "internalType": "bool",
          "name": "",
          "type": "bool"
        }
      ],
      "stateMutability": "view",
      "type": "function"
    },
    {
      "inputs": [],
      "name": "symbol",
      "outputs": [
        {
          "internalType": "string",
          "name": "",
          "type": "string"
        }
      ],
      "stateMutability": "view",
      "type": "function"
    },
    {
      "inputs": [
        {
          "internalType": "uint256",
          "name": "tokenId",
          "type": "uint256"
        }
      ],
      "name": "tokenURI",
      "outputs": [
        {
          "internalType": "string",
          "name": "",
          "type": "string"
        }
      ],
      "stateMutability": "view",
      "type": "function"
    },
    {
      "inputs": [
        {
          "internalType": "address",
          "name": "from",
          "type": "address"
        },
        {
          "internalType": "address",
          "name": "to",
          "type": "address"
        },
        {
          "internalType": "uint256",
          "name": "tokenId",
          "type": "uint256"
        }
      ],
      "name": "transferFrom",
      "outputs": [],
      "stateMutability": "nonpayable",
      "type": "function"
    }
  ],
  "bytecode": "0x60806040526001600a556001600b553480156200001b57600080fd5b506040518060400160405280600781526020017f4d696e744e4654000000000000000000000000000000000000000000000000008152506040518060400160405280600781526020017f4d696e744e46540000000000000000000000000000000000000000000000000081525081600090816200009991906200036f565b508060019081620000ab91906200036f565b50505033600960006101000a81548173ffffffffffffffffffffffffffffffffffffffff021916908373ffffffffffffffffffffffffffffffffffffffff16021790555062000456565b600081519050919050565b7f4e487b7100000000000000000000000000000000000000000000000000000000600052604160045260246000fd5b7f4e487b7100000000000000000000000000000000000000000000000000000000600052602260045260246000fd5b600060028204905060018216806200017757607f821691505b6020821081036200018d576200018c6200012f565b5b50919050565b60008190508160005260206000209050919050565b60006020601f8301049050919050565b600082821b905092915050565b600060088302620001f77fffffffffffffffffffffffffffffffffffffffffffffffffffffffffffffffff82620001b8565b620002038683620001b8565b95508019841693508086168417925050509392505050565b6000819050919050565b6000819050919050565b6000620002506200024a62000244846200021b565b62000225565b6200021b565b9050919050565b6000819050919050565b6200026c836200022f565b620002846200027b8262000257565b848454620001c5565b825550505050565b600090565b6200029b6200028c565b620002a881848462000261565b505050565b5b81811015620002d057620002c460008262000291565b600181019050620002ae565b5050565b601f8211156200031f57620002e98162000193565b620002f484620001a8565b8101602085101562000304578190505b6200031c6200031385620001a8565b830182620002ad565b50505b505050565b600082821c905092915050565b6000620003446000198460080262000324565b1980831691505092915050565b60006200035f838362000331565b9150826002028217905092915050565b6200037a82620000f5565b67ffffffffffffffff81111562000396576200039562000100565b5b620003a282546200015e565b620003af828285620002d4565b600060209050601f831160018114620003e75760008415620003d2578287015190505b620003de858262000351565b8655506200044e565b601f198416620003f78662000193565b60005b828110156200042157848901518255600182019150602085019450602081019050620003fa565b868310156200044157848901516200043d601f89168262000331565b8355505b6001600288020188555050505b505050505050565b61394280620004666000396000f3fe608060405234801561001057600080fd5b506004361061014d5760003560e01c806368744046116100c35780639647b8df1161007c5780639647b8df146103ec578063a22cb46514610408578063ad18da3414610424578063b88d4fde14610440578063c87b56dd1461045c578063e985e9c51461048c5761014d565b806368744046146102ec57806370a082311461031d57806386016b171461034d5780638da5cb5b1461037d5780638ebb4c151461039b57806395d89b41146103ce5761014d565b806323b872dd1161011557806323b872dd1461021c578063360d03a1146102385780633bc5f48a1461026857806340c10f191461028457806342842e0e146102a05780636352211e146102bc5761014d565b806301ffc9a71461015257806306fdde0314610182578063081812fc146101a0578063095ea7b3146101d05780631b184326146101ec575b600080fd5b61016c60048036038101906101679190612280565b6104bc565b60405161017991906122c8565b60405180910390f35b61018a61059e565b6040516101979190612373565b60405180910390f35b6101ba60048036038101906101b591906123cb565b610630565b6040516101c79190612439565b60405180910390f35b6101ea60048036038101906101e59190612480565b610676565b005b610206600480360381019061020191906123cb565b61078d565b60405161021391906122c8565b60405180910390f35b610236600480360381019061023191906124c0565b6107e4565b005b610252600480360381019061024d919061265b565b610844565b60405161025f9190612831565b60405180910390f35b610282600480360381019061027d9190612908565b610aef565b005b61029e60048036038101906102999190612480565b610be9565b005b6102ba60048036038101906102b591906124c0565b610bf7565b005b6102d660048036038101906102d191906123cb565b610c17565b6040516102e39190612439565b60405180910390f35b610306600480360381019061030191906123cb565b610c9d565b604051610314929190612960565b60405180910390f35b61033760048036038101906103329190612990565b610d49565b60405161034491906129bd565b60405180910390f35b610367600480360381019061036291906123cb565b610e00565b6040516103749190612a87565b60405180910390f35b610385610f74565b6040516103929190612439565b60405180910390f35b6103b560048036038101906103b091906123cb565b610f9a565b6040516103c59493929190612aa9565b60405180910390f35b6103d6611072565b6040516103e39190612373565b60405180910390f35b61040660048036038101906104019190612af5565b611104565b005b610422600480360381019061041d9190612b90565b611233565b005b61043e60048036038101906104399190612bd0565b611249565b005b61045a60048036038101906104559190612ccd565b611323565b005b610476600480360381019061047191906123cb565b611385565b6040516104839190612373565b60405180910390f35b6104a660048036038101906104a19190612d50565b6113ed565b6040516104b391906122c8565b60405180910390f35b60007f80ac58cd000000000000000000000000000000000000000000000000000000007bffffffffffffffffffffffffffffffffffffffffffffffffffffffff1916827bffffffffffffffffffffffffffffffffffffffffffffffffffffffff1916148061058757507f5b5e139f000000000000000000000000000000000000000000000000000000007bffffffffffffffffffffffffffffffffffffffffffffffffffffffff1916827bffffffffffffffffffffffffffffffffffffffffffffffffffffffff1916145b80610597575061059682611481565b5b9050919050565b6060600080546105ad90612dbf565b80601f01602080910402602001604051908101604052809291908181526020018280546105d990612dbf565b80156106265780601f106105fb57610100808354040283529160200191610626565b820191906000526020600020905b81548152906001019060200180831161060957829003601f168201915b5050505050905090565b600061063b826114eb565b6004600083815260200190815260200160002060009054906101000a900473ffffffffffffffffffffffffffffffffffffffff169050919050565b600061068182610c17565b90508073ffffffffffffffffffffffffffffffffffffffff168373ffffffffffffffffffffffffffffffffffffffff16036106f1576040517f08c379a00000000000000000000000000000000000000000000000000000000081526004016106e890612e62565b60405180910390fd5b8073ffffffffffffffffffffffffffffffffffffffff16610710611536565b73ffffffffffffffffffffffffffffffffffffffff16148061073f575061073e81610739611536565b6113ed565b5b61077e576040517f08c379a000000000000000000000000000000000000000000000000000000000815260040161077590612ef4565b60405180910390fd5b610788838361153e565b505050565b600080600190505b600b548110156107d957826008600083815260200190815260200160002060010154036107c65760019150506107df565b80806107d190612f43565b915050610795565b50600090505b919050565b6107f56107ef611536565b826115f7565b610834576040517f08c379a000000000000000000000000000000000000000000000000000000000815260040161082b90612ffd565b60405180910390fd5b61083f83838361168c565b505050565b60606000805b83518110156108bf5760008482815181106108685761086761301d565b5b60200260200101511180156108985750600b5484828151811061088e5761088d61301d565b5b6020026020010151105b156108ac5781806108a890612f43565b9250505b80806108b790612f43565b91505061084a565b5060008167ffffffffffffffff8111156108dc576108db612518565b5b60405190808252806020026020018201604052801561091557816020015b6109026121d6565b8152602001906001900390816108fa5790505b5090506000805b8551811015610ae357600086828151811061093a5761093961301d565b5b602002602001015111801561096a5750600b548682815181106109605761095f61301d565b5b6020026020010151105b15610ad057600860008783815181106109865761098561301d565b5b6020026020010151815260200190815260200160002060405180608001604052908160008201548152602001600182015481526020016002820180546109cb90612dbf565b80601f01602080910402602001604051908101604052809291908181526020018280546109f790612dbf565b8015610a445780601f10610a1957610100808354040283529160200191610a44565b820191906000526020600020905b815481529060010190602001808311610a2757829003601f168201915b505050505081526020016003820160009054906101000a900473ffffffffffffffffffffffffffffffffffffffff1673ffffffffffffffffffffffffffffffffffffffff1673ffffffffffffffffffffffffffffffffffffffff1681525050838381518110610ab657610ab561301d565b5b60200260200101819052508180610acc90612f43565b9250505b8080610adb90612f43565b91505061091c565b50819350505050919050565b600960009054906101000a900473ffffffffffffffffffffffffffffffffffffffff1673ffffffffffffffffffffffffffffffffffffffff163373ffffffffffffffffffffffffffffffffffffffff1614610b7f576040517f08c379a0000000000000000000000000000000000000000000000000000000008152600401610b7690613098565b60405180910390fd5b6000600a6000815480929190610b9490612f43565b91905055905060405180604001604052808281526020018381525060076000838152602001908152602001600020600082015181600001556020820151816001019081610be19190613264565b509050505050565b610bf38282611985565b5050565b610c1283838360405180602001604052806000815250611323565b505050565b600080610c2383611ba2565b9050600073ffffffffffffffffffffffffffffffffffffffff168173ffffffffffffffffffffffffffffffffffffffff1603610c94576040517f08c379a0000000000000000000000000000000000000000000000000000000008152600401610c8b90613382565b60405180910390fd5b80915050919050565b6007602052806000526040600020600091509050806000015490806001018054610cc690612dbf565b80601f0160208091040260200160405190810160405280929190818152602001828054610cf290612dbf565b8015610d3f5780601f10610d1457610100808354040283529160200191610d3f565b820191906000526020600020905b815481529060010190602001808311610d2257829003601f168201915b5050505050905082565b60008073ffffffffffffffffffffffffffffffffffffffff168273ffffffffffffffffffffffffffffffffffffffff1603610db9576040517f08c379a0000000000000000000000000000000000000000000000000000000008152600401610db090613414565b60405180910390fd5b600360008373ffffffffffffffffffffffffffffffffffffffff1673ffffffffffffffffffffffffffffffffffffffff168152602001908152602001600020549050919050565b60606000600b5467ffffffffffffffff811115610e2057610e1f612518565b5b604051908082528060200260200182016040528015610e4e5781602001602082028036833780820191505090505b509050600080600190505b600b54811015610ec25784600860008381526020019081526020016000206001015403610eaf5780838381518110610e9457610e9361301d565b5b6020026020010181815250508180610eab90612f43565b9250505b8080610eba90612f43565b915050610e59565b5060008167ffffffffffffffff811115610edf57610ede612518565b5b604051908082528060200260200182016040528015610f0d5781602001602082028036833780820191505090505b50905060005b82811015610f6857838181518110610f2e57610f2d61301d565b5b6020026020010151828281518110610f4957610f4861301d565b5b6020026020010181815250508080610f6090612f43565b915050610f13565b50809350505050919050565b600960009054906101000a900473ffffffffffffffffffffffffffffffffffffffff1681565b6008602052806000526040600020600091509050806000015490806001015490806002018054610fc990612dbf565b80601f0160208091040260200160405190810160405280929190818152602001828054610ff590612dbf565b80156110425780601f1061101757610100808354040283529160200191611042565b820191906000526020600020905b81548152906001019060200180831161102557829003601f168201915b5050505050908060030160009054906101000a900473ffffffffffffffffffffffffffffffffffffffff16905084565b60606001805461108190612dbf565b80601f01602080910402602001604051908101604052809291908181526020018280546110ad90612dbf565b80156110fa5780601f106110cf576101008083540402835291602001916110fa565b820191906000526020600020905b8154815290600101906020018083116110dd57829003601f168201915b5050505050905090565b6000831180156111155750600a5483105b611154576040517f08c379a000000000000000000000000000000000000000000000000000000000815260040161114b90613480565b60405180910390fd5b6000600b600081548092919061116990612f43565b91905055905060405180608001604052808281526020018581526020018481526020018373ffffffffffffffffffffffffffffffffffffffff1681525060086000838152602001908152602001600020600082015181600001556020820151816001015560408201518160020190816111e29190613264565b5060608201518160030160006101000a81548173ffffffffffffffffffffffffffffffffffffffff021916908373ffffffffffffffffffffffffffffffffffffffff16021790555090505050505050565b61124561123e611536565b8383611bdf565b5050565b600960009054906101000a900473ffffffffffffffffffffffffffffffffffffffff1673ffffffffffffffffffffffffffffffffffffffff163373ffffffffffffffffffffffffffffffffffffffff16146112d9576040517f08c379a00000000000000000000000000000000000000000000000000000000081526004016112d090613098565b60405180910390fd5b600660008381526020019081526020016000208190806001815401808255809150506001900390600052602060002001600090919091909150908161131e9190613264565b505050565b61133461132e611536565b836115f7565b611373576040517f08c379a000000000000000000000000000000000000000000000000000000000815260040161136a90612ffd565b60405180910390fd5b61137f84848484611d4b565b50505050565b6060611390826114eb565b600061139a611da7565b905060008151116113ba57604051806020016040528060008152506113e5565b806113c484611dbe565b6040516020016113d59291906134dc565b6040516020818303038152906040525b915050919050565b6000600560008473ffffffffffffffffffffffffffffffffffffffff1673ffffffffffffffffffffffffffffffffffffffff16815260200190815260200160002060008373ffffffffffffffffffffffffffffffffffffffff1673ffffffffffffffffffffffffffffffffffffffff16815260200190815260200160002060009054906101000a900460ff16905092915050565b60007f01ffc9a7000000000000000000000000000000000000000000000000000000007bffffffffffffffffffffffffffffffffffffffffffffffffffffffff1916827bffffffffffffffffffffffffffffffffffffffffffffffffffffffff1916149050919050565b6114f481611e8c565b611533576040517f08c379a000000000000000000000000000000000000000000000000000000000815260040161152a90613382565b60405180910390fd5b50565b600033905090565b816004600083815260200190815260200160002060006101000a81548173ffffffffffffffffffffffffffffffffffffffff021916908373ffffffffffffffffffffffffffffffffffffffff160217905550808273ffffffffffffffffffffffffffffffffffffffff166115b183610c17565b73ffffffffffffffffffffffffffffffffffffffff167f8c5be1e5ebec7d5bd14f71427d1e84f3dd0314c0f7b2291e5b200ac8c7c3b92560405160405180910390a45050565b60008061160383610c17565b90508073ffffffffffffffffffffffffffffffffffffffff168473ffffffffffffffffffffffffffffffffffffffff161480611645575061164481856113ed565b5b8061168357508373ffffffffffffffffffffffffffffffffffffffff1661166b84610630565b73ffffffffffffffffffffffffffffffffffffffff16145b91505092915050565b8273ffffffffffffffffffffffffffffffffffffffff166116ac82610c17565b73ffffffffffffffffffffffffffffffffffffffff1614611702576040517f08c379a00000000000000000000000000000000000000000000000000000000081526004016116f990613572565b60405180910390fd5b600073ffffffffffffffffffffffffffffffffffffffff168273ffffffffffffffffffffffffffffffffffffffff1603611771576040517f08c379a000000000000000000000000000000000000000000000000000000000815260040161176890613604565b60405180910390fd5b61177e8383836001611ecd565b8273ffffffffffffffffffffffffffffffffffffffff1661179e82610c17565b73ffffffffffffffffffffffffffffffffffffffff16146117f4576040517f08c379a00000000000000000000000000000000000000000000000000000000081526004016117eb90613572565b60405180910390fd5b6004600082815260200190815260200160002060006101000a81549073ffffffffffffffffffffffffffffffffffffffff02191690556001600360008573ffffffffffffffffffffffffffffffffffffffff1673ffffffffffffffffffffffffffffffffffffffff168152602001908152602001600020600082825403925050819055506001600360008473ffffffffffffffffffffffffffffffffffffffff1673ffffffffffffffffffffffffffffffffffffffff16815260200190815260200160002060008282540192505081905550816002600083815260200190815260200160002060006101000a81548173ffffffffffffffffffffffffffffffffffffffff021916908373ffffffffffffffffffffffffffffffffffffffff160217905550808273ffffffffffffffffffffffffffffffffffffffff168473ffffffffffffffffffffffffffffffffffffffff167fddf252ad1be2c89b69c2b068fc378daa952ba7f163c4a11628f55a4df523b3ef60405160405180910390a46119808383836001611ed3565b505050565b600073ffffffffffffffffffffffffffffffffffffffff168273ffffffffffffffffffffffffffffffffffffffff16036119f4576040517f08c379a00000000000000000000000000000000000000000000000000000000081526004016119eb90613670565b60405180910390fd5b6119fd81611e8c565b15611a3d576040517f08c379a0000000000000000000000000000000000000000000000000000000008152600401611a34906136dc565b60405180910390fd5b611a4b600083836001611ecd565b611a5481611e8c565b15611a94576040517f08c379a0000000000000000000000000000000000000000000000000000000008152600401611a8b906136dc565b60405180910390fd5b6001600360008473ffffffffffffffffffffffffffffffffffffffff1673ffffffffffffffffffffffffffffffffffffffff16815260200190815260200160002060008282540192505081905550816002600083815260200190815260200160002060006101000a81548173ffffffffffffffffffffffffffffffffffffffff021916908373ffffffffffffffffffffffffffffffffffffffff160217905550808273ffffffffffffffffffffffffffffffffffffffff16600073ffffffffffffffffffffffffffffffffffffffff167fddf252ad1be2c89b69c2b068fc378daa952ba7f163c4a11628f55a4df523b3ef60405160405180910390a4611b9e600083836001611ed3565b5050565b60006002600083815260200190815260200160002060009054906101000a900473ffffffffffffffffffffffffffffffffffffffff169050919050565b8173ffffffffffffffffffffffffffffffffffffffff168373ffffffffffffffffffffffffffffffffffffffff1603611c4d576040517f08c379a0000000000000000000000000000000000000000000000000000000008152600401611c4490613748565b60405180910390fd5b80600560008573ffffffffffffffffffffffffffffffffffffffff1673ffffffffffffffffffffffffffffffffffffffff16815260200190815260200160002060008473ffffffffffffffffffffffffffffffffffffffff1673ffffffffffffffffffffffffffffffffffffffff16815260200190815260200160002060006101000a81548160ff0219169083151502179055508173ffffffffffffffffffffffffffffffffffffffff168373ffffffffffffffffffffffffffffffffffffffff167f17307eab39ab6107e8899845ad3d59bd9653f200f220920489ca2b5937696c3183604051611d3e91906122c8565b60405180910390a3505050565b611d5684848461168c565b611d6284848484611ed9565b611da1576040517f08c379a0000000000000000000000000000000000000000000000000000000008152600401611d98906137da565b60405180910390fd5b50505050565b606060405180602001604052806000815250905090565b606060006001611dcd84612060565b01905060008167ffffffffffffffff811115611dec57611deb612518565b5b6040519080825280601f01601f191660200182016040528015611e1e5781602001600182028036833780820191505090505b509050600082602001820190505b600115611e81578080600190039150507f3031323334353637383961626364656600000000000000000000000000000000600a86061a8153600a8581611e7557611e746137fa565b5b04945060008503611e2c575b819350505050919050565b60008073ffffffffffffffffffffffffffffffffffffffff16611eae83611ba2565b73ffffffffffffffffffffffffffffffffffffffff1614159050919050565b50505050565b50505050565b6000611efa8473ffffffffffffffffffffffffffffffffffffffff166121b3565b15612053578373ffffffffffffffffffffffffffffffffffffffff1663150b7a02611f23611536565b8786866040518563ffffffff1660e01b8152600401611f45949392919061387e565b6020604051808303816000875af1925050508015611f8157506040513d601f19601f82011682018060405250810190611f7e91906138df565b60015b612003573d8060008114611fb1576040519150601f19603f3d011682016040523d82523d6000602084013e611fb6565b606091505b506000815103611ffb576040517f08c379a0000000000000000000000000000000000000000000000000000000008152600401611ff2906137da565b60405180910390fd5b805181602001fd5b63150b7a0260e01b7bffffffffffffffffffffffffffffffffffffffffffffffffffffffff1916817bffffffffffffffffffffffffffffffffffffffffffffffffffffffff191614915050612058565b600190505b949350505050565b600080600090507a184f03e93ff9f4daa797ed6e38ed64bf6a1f01000000000000000083106120be577a184f03e93ff9f4daa797ed6e38ed64bf6a1f01000000000000000083816120b4576120b36137fa565b5b0492506040810190505b6d04ee2d6d415b85acef810000000083106120fb576d04ee2d6d415b85acef810000000083816120f1576120f06137fa565b5b0492506020810190505b662386f26fc10000831061212a57662386f26fc1000083816121205761211f6137fa565b5b0492506010810190505b6305f5e1008310612153576305f5e1008381612149576121486137fa565b5b0492506008810190505b612710831061217857612710838161216e5761216d6137fa565b5b0492506004810190505b6064831061219b5760648381612191576121906137fa565b5b0492506002810190505b600a83106121aa576001810190505b80915050919050565b6000808273ffffffffffffffffffffffffffffffffffffffff163b119050919050565b6040518060800160405280600081526020016000815260200160608152602001600073ffffffffffffffffffffffffffffffffffffffff1681525090565b6000604051905090565b600080fd5b600080fd5b60007fffffffff0000000000000000000000000000000000000000000000000000000082169050919050565b61225d81612228565b811461226857600080fd5b50565b60008135905061227a81612254565b92915050565b6000602082840312156122965761229561221e565b5b60006122a48482850161226b565b91505092915050565b60008115159050919050565b6122c2816122ad565b82525050565b60006020820190506122dd60008301846122b9565b92915050565b600081519050919050565b600082825260208201905092915050565b60005b8381101561231d578082015181840152602081019050612302565b60008484015250505050565b6000601f19601f8301169050919050565b6000612345826122e3565b61234f81856122ee565b935061235f8185602086016122ff565b61236881612329565b840191505092915050565b6000602082019050818103600083015261238d818461233a565b905092915050565b6000819050919050565b6123a881612395565b81146123b357600080fd5b50565b6000813590506123c58161239f565b92915050565b6000602082840312156123e1576123e061221e565b5b60006123ef848285016123b6565b91505092915050565b600073ffffffffffffffffffffffffffffffffffffffff82169050919050565b6000612423826123f8565b9050919050565b61243381612418565b82525050565b600060208201905061244e600083018461242a565b92915050565b61245d81612418565b811461246857600080fd5b50565b60008135905061247a81612454565b92915050565b600080604083850312156124975761249661221e565b5b60006124a58582860161246b565b92505060206124b6858286016123b6565b9150509250929050565b6000806000606084860312156124d9576124d861221e565b5b60006124e78682870161246b565b93505060206124f88682870161246b565b9250506040612509868287016123b6565b9150509250925092565b600080fd5b7f4e487b7100000000000000000000000000000000000000000000000000000000600052604160045260246000fd5b61255082612329565b810181811067ffffffffffffffff8211171561256f5761256e612518565b5b80604052505050565b6000612582612214565b905061258e8282612547565b919050565b600067ffffffffffffffff8211156125ae576125ad612518565b5b602082029050602081019050919050565b600080fd5b60006125d76125d284612593565b612578565b905080838252602082019050602084028301858111156125fa576125f96125bf565b5b835b81811015612623578061260f88826123b6565b8452602084019350506020810190506125fc565b5050509392505050565b600082601f83011261264257612641612513565b5b81356126528482602086016125c4565b91505092915050565b6000602082840312156126715761267061221e565b5b600082013567ffffffffffffffff81111561268f5761268e612223565b5b61269b8482850161262d565b91505092915050565b600081519050919050565b600082825260208201905092915050565b6000819050602082019050919050565b6126d981612395565b82525050565b600082825260208201905092915050565b60006126fb826122e3565b61270581856126df565b93506127158185602086016122ff565b61271e81612329565b840191505092915050565b61273281612418565b82525050565b600060808301600083015161275060008601826126d0565b50602083015161276360208601826126d0565b506040830151848203604086015261277b82826126f0565b91505060608301516127906060860182612729565b508091505092915050565b60006127a78383612738565b905092915050565b6000602082019050919050565b60006127c7826126a4565b6127d181856126af565b9350836020820285016127e3856126c0565b8060005b8581101561281f5784840389528151612800858261279b565b945061280b836127af565b925060208a019950506001810190506127e7565b50829750879550505050505092915050565b6000602082019050818103600083015261284b81846127bc565b905092915050565b600080fd5b600067ffffffffffffffff82111561287357612872612518565b5b61287c82612329565b9050602081019050919050565b82818337600083830152505050565b60006128ab6128a684612858565b612578565b9050828152602081018484840111156128c7576128c6612853565b5b6128d2848285612889565b509392505050565b600082601f8301126128ef576128ee612513565b5b81356128ff848260208601612898565b91505092915050565b60006020828403121561291e5761291d61221e565b5b600082013567ffffffffffffffff81111561293c5761293b612223565b5b612948848285016128da565b91505092915050565b61295a81612395565b82525050565b60006040820190506129756000830185612951565b8181036020830152612987818461233a565b90509392505050565b6000602082840312156129a6576129a561221e565b5b60006129b48482850161246b565b91505092915050565b60006020820190506129d26000830184612951565b92915050565b600081519050919050565b600082825260208201905092915050565b6000819050602082019050919050565b6000612a1083836126d0565b60208301905092915050565b6000602082019050919050565b6000612a34826129d8565b612a3e81856129e3565b9350612a49836129f4565b8060005b83811015612a7a578151612a618882612a04565b9750612a6c83612a1c565b925050600181019050612a4d565b5085935050505092915050565b60006020820190508181036000830152612aa18184612a29565b905092915050565b6000608082019050612abe6000830187612951565b612acb6020830186612951565b8181036040830152612add818561233a565b9050612aec606083018461242a565b95945050505050565b600080600060608486031215612b0e57612b0d61221e565b5b6000612b1c868287016123b6565b935050602084013567ffffffffffffffff811115612b3d57612b3c612223565b5b612b49868287016128da565b9250506040612b5a8682870161246b565b9150509250925092565b612b6d816122ad565b8114612b7857600080fd5b50565b600081359050612b8a81612b64565b92915050565b60008060408385031215612ba757612ba661221e565b5b6000612bb58582860161246b565b9250506020612bc685828601612b7b565b9150509250929050565b60008060408385031215612be757612be661221e565b5b6000612bf5858286016123b6565b925050602083013567ffffffffffffffff811115612c1657612c15612223565b5b612c22858286016128da565b9150509250929050565b600067ffffffffffffffff821115612c4757612c46612518565b5b612c5082612329565b9050602081019050919050565b6000612c70612c6b84612c2c565b612578565b905082815260208101848484011115612c8c57612c8b612853565b5b612c97848285612889565b509392505050565b600082601f830112612cb457612cb3612513565b5b8135612cc4848260208601612c5d565b91505092915050565b60008060008060808587031215612ce757612ce661221e565b5b6000612cf58782880161246b565b9450506020612d068782880161246b565b9350506040612d17878288016123b6565b925050606085013567ffffffffffffffff811115612d3857612d37612223565b5b612d4487828801612c9f565b91505092959194509250565b60008060408385031215612d6757612d6661221e565b5b6000612d758582860161246b565b9250506020612d868582860161246b565b9150509250929050565b7f4e487b7100000000000000000000000000000000000000000000000000000000600052602260045260246000fd5b60006002820490506001821680612dd757607f821691505b602082108103612dea57612de9612d90565b5b50919050565b7f4552433732313a20617070726f76616c20746f2063757272656e74206f776e6560008201527f7200000000000000000000000000000000000000000000000000000000000000602082015250565b6000612e4c6021836122ee565b9150612e5782612df0565b604082019050919050565b60006020820190508181036000830152612e7b81612e3f565b9050919050565b7f4552433732313a20617070726f76652063616c6c6572206973206e6f7420746f60008201527f6b656e206f776e6572206f7220617070726f76656420666f7220616c6c000000602082015250565b6000612ede603d836122ee565b9150612ee982612e82565b604082019050919050565b60006020820190508181036000830152612f0d81612ed1565b9050919050565b7f4e487b7100000000000000000000000000000000000000000000000000000000600052601160045260246000fd5b6000612f4e82612395565b91507fffffffffffffffffffffffffffffffffffffffffffffffffffffffffffffffff8203612f8057612f7f612f14565b5b600182019050919050565b7f4552433732313a2063616c6c6572206973206e6f7420746f6b656e206f776e6560008201527f72206f7220617070726f76656400000000000000000000000000000000000000602082015250565b6000612fe7602d836122ee565b9150612ff282612f8b565b604082019050919050565b6000602082019050818103600083015261301681612fda565b9050919050565b7f4e487b7100000000000000000000000000000000000000000000000000000000600052603260045260246000fd5b7f43616c6c6572206973206e6f7420746865206f776e65722e0000000000000000600082015250565b60006130826018836122ee565b915061308d8261304c565b602082019050919050565b600060208201905081810360008301526130b181613075565b9050919050565b60008190508160005260206000209050919050565b60006020601f8301049050919050565b600082821b905092915050565b60006008830261311a7fffffffffffffffffffffffffffffffffffffffffffffffffffffffffffffffff826130dd565b61312486836130dd565b95508019841693508086168417925050509392505050565b6000819050919050565b600061316161315c61315784612395565b61313c565b612395565b9050919050565b6000819050919050565b61317b83613146565b61318f61318782613168565b8484546130ea565b825550505050565b600090565b6131a4613197565b6131af818484613172565b505050565b5b818110156131d3576131c860008261319c565b6001810190506131b5565b5050565b601f821115613218576131e9816130b8565b6131f2846130cd565b81016020851015613201578190505b61321561320d856130cd565b8301826131b4565b50505b505050565b600082821c905092915050565b600061323b6000198460080261321d565b1980831691505092915050565b6000613254838361322a565b9150826002028217905092915050565b61326d826122e3565b67ffffffffffffffff81111561328657613285612518565b5b6132908254612dbf565b61329b8282856131d7565b600060209050601f8311600181146132ce57600084156132bc578287015190505b6132c68582613248565b86555061332e565b601f1984166132dc866130b8565b60005b82811015613304578489015182556001820191506020850194506020810190506132df565b86831015613321578489015161331d601f89168261322a565b8355505b6001600288020188555050505b505050505050565b7f4552433732313a20696e76616c696420746f6b656e2049440000000000000000600082015250565b600061336c6018836122ee565b915061337782613336565b602082019050919050565b6000602082019050818103600083015261339b8161335f565b9050919050565b7f4552433732313a2061646472657373207a65726f206973206e6f74206120766160008201527f6c6964206f776e65720000000000000000000000000000000000000000000000602082015250565b60006133fe6029836122ee565b9150613409826133a2565b604082019050919050565b6000602082019050818103600083015261342d816133f1565b9050919050565b7f496e76616c696420426f6f6b2049442e00000000000000000000000000000000600082015250565b600061346a6010836122ee565b915061347582613434565b602082019050919050565b600060208201905081810360008301526134998161345d565b9050919050565b600081905092915050565b60006134b6826122e3565b6134c081856134a0565b93506134d08185602086016122ff565b80840191505092915050565b60006134e882856134ab565b91506134f482846134ab565b91508190509392505050565b7f4552433732313a207472616e736665722066726f6d20696e636f72726563742060008201527f6f776e6572000000000000000000000000000000000000000000000000000000602082015250565b600061355c6025836122ee565b915061356782613500565b604082019050919050565b6000602082019050818103600083015261358b8161354f565b9050919050565b7f4552433732313a207472616e7366657220746f20746865207a65726f2061646460008201527f7265737300000000000000000000000000000000000000000000000000000000602082015250565b60006135ee6024836122ee565b91506135f982613592565b604082019050919050565b6000602082019050818103600083015261361d816135e1565b9050919050565b7f4552433732313a206d696e7420746f20746865207a65726f2061646472657373600082015250565b600061365a6020836122ee565b915061366582613624565b602082019050919050565b600060208201905081810360008301526136898161364d565b9050919050565b7f4552433732313a20746f6b656e20616c7265616479206d696e74656400000000600082015250565b60006136c6601c836122ee565b91506136d182613690565b602082019050919050565b600060208201905081810360008301526136f5816136b9565b9050919050565b7f4552433732313a20617070726f766520746f2063616c6c657200000000000000600082015250565b60006137326019836122ee565b915061373d826136fc565b602082019050919050565b6000602082019050818103600083015261376181613725565b9050919050565b7f4552433732313a207472616e7366657220746f206e6f6e20455243373231526560008201527f63656976657220696d706c656d656e7465720000000000000000000000000000602082015250565b60006137c46032836122ee565b91506137cf82613768565b604082019050919050565b600060208201905081810360008301526137f3816137b7565b9050919050565b7f4e487b7100000000000000000000000000000000000000000000000000000000600052601260045260246000fd5b600081519050919050565b600082825260208201905092915050565b600061385082613829565b61385a8185613834565b935061386a8185602086016122ff565b61387381612329565b840191505092915050565b6000608082019050613893600083018761242a565b6138a0602083018661242a565b6138ad6040830185612951565b81810360608301526138bf8184613845565b905095945050505050565b6000815190506138d981612254565b92915050565b6000602082840312156138f5576138f461221e565b5b6000613903848285016138ca565b9150509291505056fea26469706673582212205101f6d60a4ae3c86dc28f9ea05bbec9aba29415ce8ee3a185a4664b0a4b9d2c64736f6c63430008120033",
  "linkReferences": {},
  "deployedLinkReferences": {}
}